:020000020000FC
:10000000ACC46FC01895189509946BC048C018957A
:1000100050C018951895F3C018951895189518950F
:10002000189580C01895697A40744042405B0290F0
:10003000FFFF7F0000B99FB68A9409F4E5E29FBEF6
:1000400018959FB68A949FBE189520FD949A21FD1D
:10005000939A22FD929A20FD959A21FD979A22FD6E
:10006000C19AE7E3832C24BC1895A89518958F12A4
:10007000E8CFA89511FDE9CFE0916500852C20FD22
:10008000959821FD979822FDC19844BC27FD1895AD
:1000900020FD949821FD939822FD929818959FB683
:1000A00040916300415008F40E7F409363009FBE6F
:1000B00018959FB6409164004395409364004F703B
:1000C00019F4BB2019F0BA949FBE189540916600B0
:1000D00043954093660040916700439540936700C5
:1000E000F3CF46B557B59EB496FE0DC09FB65A568F
:1000F00059BD48BD41E84EBD48E048BF9FBE189578
:100100009FB6BB240BC098B693FCFACF9FB63A01BA
:1001100048B559B55659641A750A106141EC4EBD7F
:100120009FBE18959FB641B1403669F14038B1F194
:10013000403A69F1483A41F0483B79F0483F11F0C4
:100140004F1321C045ED20C067FC0DC0F3B94AEF45
:1001500010FD4FEF40937D0016C067FC07C0409133
:100160007D0043B9F6CF4CE840937F005E2FE091CD
:100170007F004191E0937F0043B9E439E52F09F016
:1001800002C045E801C045EC46BF9FBE18954091AE
:100190007E004F131461F0937E00F5CF40917E00F6
:1001A000439540937E00413019F473B06F2EEBCF2E
:1001B000423011F463B0E7CF433021F443B1423011
:1001C00001F7E1CF4A3061F05E2FE9E8E40F43B177
:1001D0004083E52F50919300540F50939300D3CF59
:1001E00043B150918D0056FD006157FD0062451BE3
:1001F00050E9450F50938D0040939300C4CF9FB6B4
:100200004CB1453F59F006FF0DC030F450918000CD
:100210005A9531F4742E18610F7B04C0006451E0CC
:10022000509380009FBE189590E578EC9398959A2E
:1002300017D0E1F7089594E674EB9298979A10D04E
:10024000E1F7089598E770EA9498C19A09D0E1F728
:1002500008959CE87CE89298959A02D0E1F7089579
:10026000F2BF82B78032E8F395989798C19862B34D
:100270006C6162BB60E1F2BFA89582B78717E8F3B3
:100280006A95C9F79A95089500D000D000D09FE0F4
:1002900060E1F2BF81E088BFA89588B780FFFDCFFD
:1002A0006A95B9F79A95A1F7089580918400909185
:1002B000850089569A4739F0C4E8D0E0E6E2859196
:1002C0008993C439E1F70895F894EF93F5DFEF913E
:1002D000789408958091600081BF0F7DC4E8D0E0DC
:1002E00080E890E0A895E199FDCF67B760FDFACF6F
:1002F000C43981F09FBB8EBB0196E09A6DB317F0B5
:100300006993F0CF79917DBBF894E29A6713E19AF3
:100310007894E8CFBCDF8FEF81BF0895000C111CEB
:10032000AA1C8A95D9F70895869FA12C969FA00CA8
:10033000C11DDF1F879FA00CC11DDF1F979FC00D30
:10034000D11D089513FD3EC012FD2EC013FD3AC00D
:1003500012FD2AC01F76C30184369F0708F4089552
:10036000C0917B00D0917C008C1B9D0B18F4CC2796
:10037000DD270DC06091770070917800C8E3D0E070
:10038000D3DFC73583E0D80710F0C7E5D3E0C093CB
:100390007500D093760001FF03C082E0B82E96C0AE
:1003A00080E1B816BF1E0895E3011F7E8091920080
:1003B00080FB17F9CC0FC295209649F3CE016DE36F
:1003C00073E0DCCFD72D1F76C0E0D03001F3CE0133
:1003D00060E074E0D3CF8091880090918900809391
:1003E0007B0090937C006091860070918700681B71
:1003F000790B05D08093770090937800089585E578
:1004000095E00196A8959F3F890721F0C0EEDCEFAB
:100410008BDFB9F70895F8948CB59DB560916400B1
:1004200078B77894903872FD6F1FC0916800D091B2
:100430006900A0906A0080936800909369006093BF
:100440006A0000906B0010906C0070916D00C0937A
:100450006B00D0936C00A0926D0080199109670B1E
:1004600097306F0728F480E097E060E0D694C79457
:100470006130A7E5B3E058F06230ACEAB1E038F0A3
:10048000643018F080E090E064E0A6EDD0E07D01FB
:1004900080936E0090936F006093700066959795BF
:1004A0008795C0916800D0916900A0906A0070E4BF
:1004B00040D0C0937100D0937200A092730054D0CA
:1004C00014FD44CFC0917500D0917600CE15DF05A4
:1004D00008F0E701CC15DD0508F0E60187E593E0BB
:1004E0008C1B9D0B01F1209601F11D7F116016FF01
:1004F00004C0880F991FCC0FDD1F68947BE29F1307
:100500007BE180319F0728F0E894079775E29F13FD
:100510007BE1C09580951E01F8942C0170936500D5
:1005200027F9789408951360E8CF1C7F77E36894E7
:10053000F0CF879FC10DDF1FAF1E979FC00DD11D4C
:10054000AF1E679FD00DA11C089580916E00909101
:100550006F0060917000C0917100D0917200A09006
:1005600073000895F2DFE5DF79B7072E7B7E79BF50
:1005700070E1F894DBBDCABD78BF8CB59DB57894A9
:1005800001606091640078B7903872FD6F1FC81BDE
:10059000D90BA60AA09263000AF40E7F09BE089543
:1005A000279670E1F8948CB59DB5C80FD91FDBBDB7
:1005B000CABD78BFA092630001607894089514FDCD
:1005C000C5DE00FDFCCF0895F5BD80E488BFE5E3FE
:1005D00082B38C6182BB95989798C1980895B09B1F
:1005E000F09366008091660085FF0895E0E0F8943E
:1005F000FCE185919491F0E0789401960297A8F33C
:10060000F894F7BBF4BBF1BB88E181BDF1BD8091EB
:10061000600081BFF5CA82E582B985EC86BF089586
:10062000DADE84E588BF89BFF0BD89E189B9549AD3
:1006300086E880BD8CB15F9A579AEDDF81EC8EBD64
:1006400089B7806289BFBB24137EF0936600F09364
:100650006700A89514FD0AC0C2DF80916700883743
:10066000C1F78CE380936700EDDDF3CF6BDEC091C3
:100670007500D0917600209631F78AE0B81648F3DD
:1006800012FFF6BF13FF5498812F8C7019F089B7B1
:100690008F7D89BFDEDDDDDDDCDD96DF0D7FF09354
:1006A0006600F0936700A89514FD0CC0BB20D9F735
:1006B00096DF809167008E31B1F786DFE8DDC2DD1D
:1006C000BADDAECF04FD00DE05FD04DE3FDE209680
:1006D00031F3BB2021F378DF80B7886080BF379883
:1006E000CEE8D0E06E010260C6D0F093740082E0E4
:1006F000B82E86E0809362008CE08093610081E0F8
:1007000085BD17FF3AC0BBD087E087B9939A10FD2B
:100710009498B3D080E087B9F894287F2260929AA9
:1007200088B3C19898B38913979A7894A8D086E033
:1007300087B9949A10FD9298A0D087E087B9F89471
:10074000287F2160939A82B3979892B38913959AE0
:10075000789495D080E087B9929A10FD93988DD0C7
:1007600086E087B9F894287F2460949A82B395989C
:1007700092B38913C19A789439C07FD080E087B949
:10078000F894287F2160929A88B3C19898B389130E
:10079000959A789474D087E087B9939A10FD9298CF
:1007A0006CD086E087B9F894287F2260949A82B34F
:1007B000959892B38913979A789461D080E087B91D
:1007C000929A10FD949859D087E087B9F894287FC1
:1007D0002460939A82B3979892B38913C19A7894BC
:1007E0004ED086E087B9949A10FD9398809161006D
:1007F000803010FFB9F0E6012096A9F08C3038F473
:10080000839580936100629686ED90E004C01F7B23
:100810006B9687E593E0C817D90710F06C0171CF8C
:100820006E016FCF3ACF57CFE5E320FD949A21FDBB
:10083000939A22FD929A95989798C19881E0809317
:10084000620068C016FD0FC0BC3068F0BBE0AB179B
:1008500008F4AB2F7ADEC80FD91FA61EC80FD91F08
:10086000A61E82DE4AC0F093610070917400715F31
:1008700016FD7093740010644DC01F7D01C010629E
:1008800080916200815050F08093620016FF18C082
:10089000C0E0DFEFAF2E84DEA3E02EC0E53309F425
:1008A000E7E316FD43C07BE15DDE89DE79E55ADED4
:1008B00000FFBACF14FD4ADD68B1612765FDF8CFAE
:1008C00044DEA92FB62FB695A795B695A795A33068
:1008D000BF0750F051F0AA31BF0708F0AAE1AC30D1
:1008E00020F073E33FDE08C0A3E0C80FD91FA61EA7
:1008F000C80FD91FA61E38DEBA2F00FFA3CF14FDE4
:1009000025DD68B1612765FD03C0AB17AF1FF5CFCB
:10091000AA9599F780DD16FF52DE809162008F1351
:100920001E7FBF1208958F918F91B7CEC0E0D0E0A7
:1009300070E0A72E80916100823030F470917400D5
:1009400080E090E860E0F5DD2BDE39DEC0E0D8EB3A
:100950007BE0A72E25DEAFEFCFCF00240FBEEFE563
:10096000F4E0FEBFEDBF0292E036F00509F4EEE1DF
:10097000E015F005C1F781B780936000A4B6F4BF1D
:10098000F8BB82E087BB80E385BBF4BB8EE182BB12
:100990008EEB81BB82E083BF81EC8EBDF5BD88E12B
:1009A00081BD88E081BD73DC95DC7FDC34DE78942A
:1009B000A0FAAF1226F438DC3EDC44DC31CEA2FED5
:1009C00004C040DC31DC00682BCEA1FE02C041DC5B
:1009D00027CEF894A3FE05C027DC26DC33DC32DC0E
:1009E000FBCF52DC4A2D58E040FF25DC40FD31DCD6
:0A09F0004CDC46955A95C1F7F4CF90
:101C0000E4E0FFE5FEBFEDBF00E0ECEBFEE0C0E886
:101C1000D0E0A0E6B0E042E045BD5CEE539571F047
:101C200040EC04BD48BFA03619F0E8B6E6FC46C05B
:101C3000B099F9CF04BD48BFE8B6E6FCE1C1B09B5E
:101C4000FBCF04BD48BFE8B6E6FCE8CFB099FBCFB8
:101C500034B404BD48BFE8B6E6FCD2C1B09BFBCFAC
:101C600024B4022C030C802C07940694402C069478
:101C70008008809420943094409460EE83E084BC8B
:101C800048BFE8B6E6FCBCC1B09BFBCF84BC48BFF4
:101C9000E8B6E6FCC3CFB099FBCF0894E8B6E6FC03
:101CA00023C0B09BFBCFE8B6E6FCB8CFB099FBCF22
:101CB0008894E8B6E6FC18C0B09BFBCF43BC87E134
:101CC000C09AB89A34BC48BFE8B6E6FEFDCFC098CB
:101CD00024BC48BFE8B6E6FEFDCF8A9589F7C0E68A
:101CE000D0E060E081E00BC0679548F6815068F570
:101CF0005CEE0994CA17DB07D1F0699188E066951C
:101D0000C09A34BC48BFE8B610F0E7FC08BBE6FE5A
:101D1000FACFC09808F0C09A24BC48BFE8B610F0CB
:101D2000E7FC08BBE6FEFACF8A9549F7E3CFC09AF5
:101D300034BC48BFC0E8D0E0A0E6B0E0E8B6E7FEBB
:101D4000FDCFB89808BB6ACF80E060E898CFECEB95
:101D5000FEE0C0E8D0E0F8CF009000000090000066
:101D60000090000000900000009000000090000033
:101D70000090000000900000000000006B3121F78F
:101D8000562E3796E1CF962E56263496DDCF762EF8
:101D900056263496D9CF662E56263496D5CF6E3039
:101DA000B1F656263596D0CF69935626CF3584E0C6
:101DB000D80768F681E0681A700A09F43C96C4CF27
:101DC0006511C5CFC0E8D0E0699199918991FD0175
:101DD0007BE170839182028372E073837EE074837F
:101DE0006583068317966130A1F48BE0838388E0D6
:101DF0008D93EF01ECEDFFE185918D93E43EE1F7EA
:101E0000FE01819161918627EA17FB07D9F78D932F
:101E10009ECF6D3151F5792F90E0039683839283A5
:101E200003970D938A95E9F789916991603380074B
:101E300094E0790779F460878991803059F4699149
:101E400060308EE131F0613083E919F0623087E073
:101E500009F482870D93D5CF8017900709F5D990A3
:101E6000C9905601AA0CBB1CCCCF6330E1F06230A4
:101E700041F2603131F2613121F2663069F3623151
:101E8000F1F1833F73E0970758F4643109F166314B
:101E900069F127966531C1F16331F9F10000000065
:101EA00080EC8683AECF90398FE071F0913982E07B
:101EB00059F092398AE041F0943982E329F0903860
:101EC00080E011F0913861F78D9383E0838399CF9F
:101ED00049D0EF01F5018FD076FDFDCF65916D936F
:101EE0000197E1F75F01FE010D938BCF3BD011E02D
:101EF0003ED06DB36D930197D9F70D9382CF47D044
:101F0000000080E092E0689416E06FEF0EF06991B7
:101F10002ED00197D1F7E89474CF8F7F61E07F01D5
:101F2000F5010990199068D032960297D1F70F0108
:101F3000F501500163E0E03C7FE1F70719F058D06C
:101F4000F7015FCF0BD065E009D061E107D0F8CF92
:101F500077B770FDFDCFE199FECF0895F9DF67BF38
:101F6000E8950895039692838383039708953AD062
:101F7000DFBACEBA0894C01ED01E762FE09A6DB399
:101F8000671312FF08957DBBE29A1CBB08957F0181
:101F9000E0E0FEE063E0B0972FD0E9F76F01F701D2
:101FA0000895000000000000000000000000000094
:101FB0000000000000000000000000000000000021
:101FC000687474703A2F2F6769746875622E636F36
:101FD0006D2F73696D2D2F7467792F00415652490B
:101FE00053505F3277B770FDFDCFE199FECF089572
:101FF00003D065E001D061E1F5DF67BFE8950895A2
:00000001FF
