:020000020000FC
:10000000E1C36BC018951895099467C044C0189552
:100010004CC01895189581C0189518951895189585
:1000200018957BC01895697A40744042405B9FB632
:100030008A9409F4E1E29FBE18959FB68A949FBE08
:10004000189520FD959821FD979822FD949820FD04
:10005000909A21FD919A22FD939AE3E3832C24BC8C
:100060001895A89518958F12E8CFA89511FDE9CF9E
:10007000E0916500852C20FD909821FD919822FD4E
:10008000939844BC27FD189520FD959A21FD979AD9
:1000900022FD949A18959FB640916300415008F450
:1000A0000E7F409363009FBE18959FB640916400F9
:1000B0004395409364004F7019F4BB2019F0BA9433
:1000C0009FBE18954091660043954093660040910D
:1000D0006700439540936700F3CF4CB55DB5829BB5
:1000E0000DC09FB65A5659BD48BD42E045BF48E0D5
:1000F00048BF9FBE18959FB6BB240BC098B693FC13
:10010000FACF9FB63A0148B559B55659641A750ADF
:10011000106143E045BF9FBE189590E578EC979A33
:10012000909A17D0E1F7089594E674EB949A919A17
:1001300010D0E1F7089598E770EA959A939A09D05C
:10014000E1F708959CE87CE8949A909A02D0E1F750
:100150000895F2BF82B78032E8F362B3647F62BB76
:1001600062B36F7462BB60E1F2BFA89582B7871774
:10017000E8F36A95C9F79A95089500D000D000D0A9
:100180009FE060E1F2BF81E088BFA89588B780FF5B
:10019000FDCF6A95B9F79A95A1F7089580918100EE
:1001A0009091820089569A4739F0C1E8D0E0E6E2A2
:1001B00085918993C938E1F708958091600081BFE6
:1001C0000F7DC1E8D0E080E890E0A895E199FDCFEF
:1001D00067B760FDFACFC93881F09FBB8EBB01962F
:1001E000E09A6DB317F06993F0CF79917DBBF894E5
:1001F000E29A6713E19A7894E8CFC2DF8FEF81BF6C
:100200000895000C111CAA1C8A95D9F70895869FA1
:10021000A12C969FA00CC11DDF1F879FA00CC11DA4
:10022000DF1F979FC00DD11D08951F76C30184362F
:100230009F0708F40895C0917B00D0917C008C1B2F
:100240009D0B18F4CC27DD270DC0609177007091CD
:100250007800C1E9D0E0DBDFC03688E0D80710F0D5
:10026000C0E6D8E0C0937500D093760001FF03C0CC
:1002700082E0B82E7FC080E1B816BF1E089580913D
:1002800085009091860080937B0090937C00609124
:10029000830070918400681B790B05D080937700F0
:1002A00090937800089585E59DE00196A8959F3F7D
:1002B000890721F0C0E3D8EFAADFB9F70895F894D1
:1002C0008CB59DB56091640078B77894903872FDD4
:1002D0006F1FC0916800D0916900A0906A00809360
:1002E00068009093690060936A0000906B00109022
:1002F0006C0070916D00C0936B00D0936C00A09265
:100300006D0080199109670B97306F0728F480E022
:1003100097E060E0D694C7946130A0E6B8E058F06A
:100320006230A0E3B4E038F0643018F080E090E090
:1003300064E0A8E1D2E07D0180936E0090936F00AD
:1003400060937000669597958795C0916800D091ED
:100350006900A0906A0073E33AD0C0937100D09313
:100360007200A09273004ED014FD5FCFC091750053
:10037000D0917600CE15DF0508F0E701CC15DD053C
:1003800008F0E60180E698E08C1B9D0BD1F02096EA
:10039000D1F01D7F1160689477E29F1377E180317F
:1003A0009F0728F0E894079771E29F1377E1C095C3
:1003B00080951E01F8942C017093650027F97894BC
:1003C00008951360E8CF1C7F73E36894F0CF879F94
:1003D000C10DDF1FAF1E979FC00DD11DAF1E679FC0
:1003E000D00DA11C089580916E0090916F006091D6
:1003F0007000C0917100D0917200A09073000895B8
:10040000F2DFE5DF79B7072E7B7E79BF70E1F894E4
:10041000DBBDCABD78BF8CB59DB578940160609195
:10042000640078B7903872FD6F1FC81BD90BA60AFD
:10043000A09263000AF40E7F09BE0895279670E12A
:10044000F8948CB59DB5C80FD91FDBBDCABD78BF68
:10045000A092630001607894089514FDE6DE00FD2B
:10046000FCCF0895F5BD80E488BFE1E382B38F74CB
:1004700082BB82B3847F82BB0895829BF093660027
:100480008091660085FF0895E0E0F894FCE1859195
:100490009491F0E0789401960297A8F3F894F7BB52
:1004A000F4BBF1BB88E181BDF1BD8091600081BFEB
:1004B000A7CBE5DE84E588BF89BF83E085BF80E404
:1004C0008BBFBB24137EF0936600F0936700A89562
:1004D00014FD0AC0D2DF809167008837C1F78CE332
:1004E0008093670028DEF3CFA0DEC0917500D09125
:1004F0007600209631F78AE0B81648F3812F8C7089
:1005000009F0FBBF1FDE1EDE1DDEACDF0D7FF093AA
:100510006600F0936700A89514FD0CC0BB20D9F7C6
:10052000ACDF809167008E31B1F79CDF29DE03DEFE
:10053000FBDDBFCF7ADE209651F3BB2041F392DF83
:1005400080B7886080BF3798C5E6D1E06E01026051
:10055000C7D0F093740082E0B82E86E080936200EA
:100560008CE08093610081E085BD17FF3AC0BCD06C
:1005700083E087B9979810FD959AB4D084E087B945
:10058000F894287F2260949882B3939892B3891349
:10059000919A7894A9D082E087B9959810FD949AA1
:1005A000A1D083E087B9F894287F2160979882B31F
:1005B000919892B38913909A789496D084E087B9F1
:1005C000949810FD979A8ED082E087B9F894287F8E
:1005D0002460959882B3909892B38913939A7894F3
:1005E00039C080D084E087B9F894287F216094983E
:1005F00082B3939892B38913909A789475D083E0DC
:1006000087B9979810FD949A6DD082E087B9F894D5
:10061000287F2260959882B3909892B38913919A1B
:10062000789462D084E087B9949810FD959A5AD056
:1006300083E087B9F894287F2460979882B39198D3
:1006400092B38913939A78944FD082E087B99598A2
:1006500010FD979A80916100803010FFC1F0E60193
:100660002096B1F08C3038F4839580936100AD967C
:1006700088E192E005C01F7BCC5BDF4F80E698E00D
:10068000C817D90710F06C0170CF6E016ECF3DCF47
:1006900056CFE1E320FD959821FD979822FD94988F
:1006A00082B3847F82BB81E08093620068C016FDC4
:1006B0000FC0BC3068F0BBE0AB1708F4AB2F93DE83
:1006C000C80FD91FA61EC80FD91FA61E9BDE4AC081
:1006D000F093610070917400715F16FD7093740067
:1006E00010644DC01F7D01C0106280916200815076
:1006F00050F08093620016FF18C0C0E0DFEFAF2E0D
:100700009DDEA3E02EC0E13309F4E3E316FD43C010
:100710007BE176DEA2DE79E573DE00FFBACF14FD61
:1007200084DD68B1612765FDF8CF5DDEA92FB62FA6
:10073000B695A795B695A795A330BF0750F051F091
:10074000A334BF0708F0A3E4AC3020F073E358DE15
:1007500008C0A3E0C80FD91FA61EC80FD91FA61E28
:1007600051DEBA2F00FFA3CF14FD5FDD68B1612712
:1007700065FD03C0AB17AF1FF5CFAA9599F79FDDB5
:1007800016FF6BDE809162008F131E7FBF120895EB
:100790008F918F91BACEC0E0D0E070E0A72E80910B
:1007A0006100823030F47091740080E090E860E085
:1007B0000EDE44DE52DEC0E0D8EB7BE0A72E3EDE4C
:1007C000AFEFCFCF00240FBEEFE5F4E0FEBFEDBFEB
:1007D0000292E036F00509F4EEE1E015F005C1F70C
:1007E00081B780936000A4B6F4BFF8BBF7BBF5BB3C
:1007F000F4BBF2BB8BEB81BB82E083BF81E08EBD9B
:10080000F5BD88E181BD88E081BDBADCD6DCC6DCFF
:100810007894A0FAAF1226F480DC86DC8CDC49CE1A
:10082000A2FE04C088DC79DC006843CEA1FE02C0D1
:1008300089DC3FCEF894A3FE05C06FDC6EDC7BDC68
:100840007ADCFBCF9ADC4A2D58E040FF6DDC40FD9E
:0C08500079DC94DC46955A95C1F7F4CF92
:101C0000E4E0FFE5FEBFEDBF00E0ECEBFEE0C0E886
:101C1000D0E0A0E6B0E042E045BD5CEE539571F047
:101C200040EC04BD48BFA03619F0E8B6E6FC46C05B
:101C30008299F9CF04BD48BFE8B6E6FCE1C1829BBA
:101C4000FBCF04BD48BFE8B6E6FCE8CF8299FBCFE6
:101C500034B404BD48BFE8B6E6FCD2C1829BFBCFDA
:101C600024B4022C030C802C07940694402C069478
:101C70008008809420943094409460EE83E084BC8B
:101C800048BFE8B6E6FCBCC1829BFBCF84BC48BF22
:101C9000E8B6E6FCC3CF8299FBCF0894E8B6E6FC31
:101CA00023C0829BFBCFE8B6E6FCB8CF8299FBCF7E
:101CB0008894E8B6E6FC18C0829BFBCF43BC87E162
:101CC000929A8A9A34BC48BFE8B6E6FEFDCF929855
:101CD00024BC48BFE8B6E6FEFDCF8A9589F7C0E68A
:101CE000D0E060E081E00BC0679548F6815068F570
:101CF0005CEE0994CA17DB07D1F0699188E066951C
:101D0000929A34BC48BFE8B610F0E7FC02BBE6FE8E
:101D1000FACF929808F0929A24BC48BFE8B610F027
:101D2000E7FC02BBE6FEFACF8A9549F7E3CF929A29
:101D300034BC48BFC0E8D0E0A0E6B0E0E8B6E7FEBB
:101D4000FDCF8A9802BB6ACF80E060E898CFECEBC9
:101D5000FEE0C0E8D0E0F8CF009000000090000066
:101D60000090000000900000009000000090000033
:101D70000090000000900000000000006B3121F78F
:101D8000562E3796E1CF962E56263496DDCF762EF8
:101D900056263496D9CF662E56263496D5CF6E3039
:101DA000B1F656263596D0CF69935626CF3584E0C6
:101DB000D80768F681E0681A700A09F43C96C4CF27
:101DC0006511C5CFC0E8D0E0699199918991FD0175
:101DD0007BE170839182028372E073837EE074837F
:101DE0006583068317966130A1F48BE0838388E0D6
:101DF0008D93EF01ECEDFFE185918D93E43EE1F7EA
:101E0000FE01819161918627EA17FB07D9F78D932F
:101E10009ECF6D3151F5792F90E0039683839283A5
:101E200003970D938A95E9F789916991603380074B
:101E300094E0790779F460878991803059F4699149
:101E400060308EE131F0613083E919F0623087E073
:101E500009F482870D93D5CF8017900709F5D990A3
:101E6000C9905601AA0CBB1CCCCF6330E1F06230A4
:101E700041F2603131F2613121F2663069F3623151
:101E8000F1F1833F73E0970758F4643109F166314B
:101E900069F127966531C1F16331F9F10000000065
:101EA00080EC8683AECF90398FE071F0913982E07B
:101EB00059F092398AE041F0943982E329F0903860
:101EC00080E011F0913861F78D9383E0838399CF9F
:101ED00049D0EF01F5018FD076FDFDCF65916D936F
:101EE0000197E1F75F01FE010D938BCF3BD011E02D
:101EF0003ED06DB36D930197D9F70D9382CF47D044
:101F0000000080E092E0689416E06FEF0EF06991B7
:101F10002ED00197D1F7E89474CF8F7F61E07F01D5
:101F2000F5010990199068D032960297D1F70F0108
:101F3000F501500163E0E03C7FE1F70719F058D06C
:101F4000F7015FCF0BD065E009D061E107D0F8CF92
:101F500077B770FDFDCFE199FECF0895F9DF67BF38
:101F6000E8950895039692838383039708953AD062
:101F7000DFBACEBA0894C01ED01E762FE09A6DB399
:101F8000671312FF08957DBBE29A1CBB08957F0181
:101F9000E0E0FEE063E0B0972FD0E9F76F01F701D2
:101FA0000895000000000000000000000000000094
:101FB0000000000000000000000000000000000021
:101FC000687474703A2F2F6769746875622E636F36
:101FD0006D2F73696D2D2F7467792F00415652490B
:101FE00053505F3277B770FDFDCFE199FECF089572
:101FF00003D065E001D061E1F5DF67BFE8950895A2
:00000001FF
