:020000020000FC
:10000000EAC36BC018951895099467C044C0189549
:100010004CC01895189582C0189518951895189584
:1000200018957CC01895697A40744042405B9FB631
:100030008A9409F4E1E29FBE18959FB68A949FBE08
:10004000189520FDAC9A21FD919A22FD939A20FDEE
:10005000909A21FDAD9A22FD959AE3E3832C24BC6E
:100060001895A89518958F12E8CFA89511FDE9CF9E
:10007000E0916500852C20FD909821FDAD9822FD32
:10008000959844BC27FD189520FDAC9821FD9198CA
:1000900022FD939818959FB640916300415008F453
:1000A0000E7F409363009FBE18959FB640916400F9
:1000B0004395409364004F7019F4BB2019F0BA9433
:1000C0009FBE18954091660043954093660040910D
:1000D0006700439540936700F3CF46B557B59EB48C
:1000E00096FE0DC09FB65A5659BD48BD41E84EBD5B
:1000F00048E048BF9FBE18959FB6BB240BC098B67A
:1001000093FCFACF9FB63A0148B559B55659641ACF
:10011000750A106141EC4EBD9FBE189590E578ECD4
:100120009198909A17D0E1F7089594E674EB93981C
:10013000AD9A10D0E1F7089598E770EAAC98959AD7
:1001400009D0E1F708959CE87CE89398909A02D052
:10015000E1F70895F2BF82B78032E8F39098AD9846
:100160009598AC9A919A939A60E1F2BFA89582B75C
:100170008717E8F36A95C9F79A95089500D000D0DB
:1001800000D09FE060E1F2BF81E088BFA89588B70A
:1001900080FFFDCF6A95B9F79A95A1F708958091F0
:1001A00081009091820089569A4739F0C1E8D0E0E9
:1001B000E6E285918993C938E1F70895809160005E
:1001C00081BF0F7DC1E8D0E080E890E0A895E1997B
:1001D000FDCF67B760FDFACFC93881F09FBB8EBBFA
:1001E0000196E09A6DB317F06993F0CF79917DBBDA
:1001F000F894E29A6713E19A7894E8CFC2DF8FEF20
:1002000081BF0895000C111CAA1C8A95D9F7089586
:10021000869FA12C969FA00CC11DDF1F879FA00C5D
:10022000C11DDF1F979FC00DD11D08951F76C3010B
:1002300084369F0708F40895C0917B00D0917C001C
:100240008C1B9D0B18F4CC27DD270DC06091770027
:1002500070917800C8E3D0E0DBDFC73583E0D807D2
:1002600010F0C7E5D3E0C0937500D093760001FF8E
:1002700003C082E0B82E7FC080E1B816BF1E08958B
:10028000809185009091860080937B0090937C0004
:100290006091830070918400681B790B05D0809376
:1002A000770090937800089585E595E00196A895EC
:1002B0009F3F890721F0C0EEDCEFAADFB9F7089570
:1002C000F8948CB59DB56091640078B778949038B7
:1002D00072FD6F1FC0916800D0916900A0906A0004
:1002E000809368009093690060936A0000906B00AF
:1002F00010906C0070916D00C0936B00D0936C00F7
:10030000A0926D0080199109670B97306F0728F450
:1003100080E097E060E0D694C7946130A7E5B3E051
:1003200058F06230ACEAB1E038F0643018F080E0A8
:1003300090E064E0A6EDD0E07D0180936E009093A4
:100340006F0060937000669597958795C0916800DF
:10035000D0916900A0906A0070E440D0C093710011
:10036000D0937200A092730054D014FD5FCFC0915F
:100370007500D0917600CE15DF0508F0E701CC15A9
:10038000DD0508F0E60187E593E08C1B9D0B01F18C
:10039000209601F11D7F116016FF04C0880F991F80
:1003A000CC0FDD1F689477E29F1377E180319F07C0
:1003B00028F0E894079771E29F1377E1C095809544
:1003C0001E01F8942C017093650027F97894089524
:1003D0001360E8CF1C7F73E36894F0CF879FC10D53
:1003E000DF1FAF1E979FC00DD11DAF1E679FD00DA1
:1003F000A11C089580916E0090916F006091700033
:10040000C0917100D0917200A09073000895F2DF46
:10041000E5DF79B7072E7B7E79BF70E1F894DBBD0D
:10042000CABD78BF8CB59DB57894016060916400B9
:1004300078B7903872FD6F1FC81BD90BA60AA0921F
:1004400063000AF40E7F09BE0895279670E1F894C0
:100450008CB59DB5C80FD91FDBBDCABD78BFA092B2
:10046000630001607894089514FDE0DE00FDFCCF88
:100470000895F5BD80E488BFE1E3AC9A919A939A20
:100480009098AD9895980895B09BF09366008091F0
:10049000660085FF0895E0E0F894FCE18591949171
:1004A000F0E0789401960297A8F3F894F7BBF4BBB8
:1004B000F1BB88E181BDF1BD8091600081BFA0CB1F
:1004C000DFDE84E588BF89BF81EC8EBD89B780629D
:1004D00089BFBB24137EF0936600F0936700A89554
:1004E00014FD0AC0D1DF809167008837C1F78CE323
:1004F0008093670021DEF3CF99DEC0917500D09123
:100500007600209631F78AE0B81648F3812F8C7078
:1005100019F089B78F7D89BF16DE15DE14DEA9DFDD
:100520000D7FF0936600F0936700A89514FD0CC052
:10053000BB20D9F7A9DF809167008E31B1F799DF31
:1005400020DEFADDF2DDBCCF71DE209651F3BB2058
:1005500041F38FDF80B7886080BF3798CEE8D0E066
:100560006E010260C6D0F093740082E0B82E86E07F
:10057000809362008CE08093610081E085BD17FD6F
:100580003AC0BBD080E087B9919A10FDAC98B3D047
:1005900087E087B9F894287F2260939A82B3959870
:1005A00092B38913AD9A7894A8D081E087B9AC9AB8
:1005B00010FD9398A0D080E087B9F894287F21603F
:1005C000919A85B3AD9895B38913909A789495D004
:1005D00087E087B9939A10FD91988DD081E087B913
:1005E000F894287F2460AC9A82B3909892B38913D0
:1005F000959A789439C07FD087E087B9F894287F9E
:100600002160939A82B3959892B38913909A7894C3
:1006100074D080E087B9919A10FD93986CD081E0F6
:1006200087B9F894287F2260AC9A82B3909892B3ED
:100630008913AD9A789461D087E087B9939A10FDB9
:10064000AC9859D080E087B9F894287F2460919ABB
:1006500085B3AD9895B38913959A78944ED081E07F
:1006600087B9AC9A10FD919880916100803010FF9D
:10067000B9F0E6012096A9F08C3038F48395809388
:100680006100629686ED90E004C01F7B6B9687E563
:1006900093E0C817D90710F06C0171CF6E016FCFCE
:1006A0003ECF57CFE1E320FDAC9A21FD919A22FD88
:1006B000939A9098AD98959881E08093620068C075
:1006C00016FD0FC0BC3068F0BBE0AB1708F4AB2FD1
:1006D00091DEC80FD91FA61EC80FD91FA61E99DE0E
:1006E0004AC0F093610070917400715F16FD7093C1
:1006F000740010644DC01F7D01C0106280916200C3
:10070000815050F08093620016FF18C0C0E0DFEF08
:10071000AF2E9BDEA3E02EC0E13309F4E3E316FD28
:1007200043C07BE174DEA0DE79E571DE00FFBACF65
:1007300014FD7CDD68B1612765FDF8CF5BDEA92F74
:10074000B62FB695A795B695A795A330BF0750F0DD
:1007500051F0AA31BF0708F0AAE1AC3020F073E3F2
:1007600056DE08C0A3E0C80FD91FA61EC80FD91FA8
:10077000A61E4FDEBA2F00FFA3CF14FD57DD68B1D0
:10078000612765FD03C0AB17AF1FF5CFAA9599F799
:1007900097DD16FF69DE809162008F131E7FBF1206
:1007A00008958F918F91BBCEC0E0D0E070E0A72E6E
:1007B00080916100823030F47091740080E090E8A4
:1007C00060E00CDE42DE50DEC0E0D8EB7BE0A72E1E
:1007D0003CDEAFEFCFCF00240FBEEFE5F4E0FEBF6D
:1007E000EDBF0292E036F00509F4EEE1E015F00508
:1007F000C1F781B780936000A4B6F4BFF8BBF7BB24
:1008000080E185BB80E384BB8AE082BB8BE281BB55
:1008100082E083BF81EC8EBDF5BD88E181BD88E0BB
:1008200081BDAFDCCBDCBBDC7894A0FAAF1226F440
:1008300075DC7BDC81DC44CEA2FE04C07DDC6EDC9A
:1008400000683ECEA1FE02C07EDC3ACEF894A3FE44
:1008500005C064DC63DC70DC6FDCFBCF8FDC4A2D11
:1008600058E040FF62DC40FD6EDC89DC46955A951D
:04087000C1F7F4CF09
:101C0000E4E0FFE5FEBFEDBF00E0ECEBFEE0C0E886
:101C1000D0E0A0E6B0E042E045BD5CEE539571F047
:101C200040EC04BD48BFA03619F0E8B6E6FC46C05B
:101C3000B099F9CF04BD48BFE8B6E6FCE1C1B09B5E
:101C4000FBCF04BD48BFE8B6E6FCE8CFB099FBCFB8
:101C500034B404BD48BFE8B6E6FCD2C1B09BFBCFAC
:101C600024B4022C030C802C07940694402C069478
:101C70008008809420943094409460EE83E084BC8B
:101C800048BFE8B6E6FCBCC1B09BFBCF84BC48BFF4
:101C9000E8B6E6FCC3CFB099FBCF0894E8B6E6FC03
:101CA00023C0B09BFBCFE8B6E6FCB8CFB099FBCF22
:101CB0008894E8B6E6FC18C0B09BFBCF43BC87E134
:101CC000C09AB89A34BC48BFE8B6E6FEFDCFC098CB
:101CD00024BC48BFE8B6E6FEFDCF8A9589F7C0E68A
:101CE000D0E060E081E00BC0679548F6815068F570
:101CF0005CEE0994CA17DB07D1F0699188E066951C
:101D0000C09A34BC48BFE8B610F0E7FC08BBE6FE5A
:101D1000FACFC09808F0C09A24BC48BFE8B610F0CB
:101D2000E7FC08BBE6FEFACF8A9549F7E3CFC09AF5
:101D300034BC48BFC0E8D0E0A0E6B0E0E8B6E7FEBB
:101D4000FDCFB89808BB6ACF80E060E898CFECEB95
:101D5000FEE0C0E8D0E0F8CF009000000090000066
:101D60000090000000900000009000000090000033
:101D70000090000000900000000000006B3121F78F
:101D8000562E3796E1CF962E56263496DDCF762EF8
:101D900056263496D9CF662E56263496D5CF6E3039
:101DA000B1F656263596D0CF69935626CF3584E0C6
:101DB000D80768F681E0681A700A09F43C96C4CF27
:101DC0006511C5CFC0E8D0E0699199918991FD0175
:101DD0007BE170839182028372E073837EE074837F
:101DE0006583068317966130A1F48BE0838388E0D6
:101DF0008D93EF01ECEDFFE185918D93E43EE1F7EA
:101E0000FE01819161918627EA17FB07D9F78D932F
:101E10009ECF6D3151F5792F90E0039683839283A5
:101E200003970D938A95E9F789916991603380074B
:101E300094E0790779F460878991803059F4699149
:101E400060308EE131F0613083E919F0623087E073
:101E500009F482870D93D5CF8017900709F5D990A3
:101E6000C9905601AA0CBB1CCCCF6330E1F06230A4
:101E700041F2603131F2613121F2663069F3623151
:101E8000F1F1833F73E0970758F4643109F166314B
:101E900069F127966531C1F16331F9F10000000065
:101EA00080EC8683AECF90398FE071F0913982E07B
:101EB00059F092398AE041F0943982E329F0903860
:101EC00080E011F0913861F78D9383E0838399CF9F
:101ED00049D0EF01F5018FD076FDFDCF65916D936F
:101EE0000197E1F75F01FE010D938BCF3BD011E02D
:101EF0003ED06DB36D930197D9F70D9382CF47D044
:101F0000000080E092E0689416E06FEF0EF06991B7
:101F10002ED00197D1F7E89474CF8F7F61E07F01D5
:101F2000F5010990199068D032960297D1F70F0108
:101F3000F501500163E0E03C7FE1F70719F058D06C
:101F4000F7015FCF0BD065E009D061E107D0F8CF92
:101F500077B770FDFDCFE199FECF0895F9DF67BF38
:101F6000E8950895039692838383039708953AD062
:101F7000DFBACEBA0894C01ED01E762FE09A6DB399
:101F8000671312FF08957DBBE29A1CBB08957F0181
:101F9000E0E0FEE063E0B0972FD0E9F76F01F701D2
:101FA0000895000000000000000000000000000094
:101FB0000000000000000000000000000000000021
:101FC000687474703A2F2F6769746875622E636F36
:101FD0006D2F73696D2D2F7467792F00415652490B
:101FE00053505F3277B770FDFDCFE199FECF089572
:101FF00003D065E001D061E1F5DF67BFE8950895A2
:00000001FF
